{
  "contractName": "DragonVote",
  "abi": [
    {
      "inputs": [],
      "payable": false,
      "stateMutability": "nonpayable",
      "type": "constructor"
    },
    {
      "constant": true,
      "inputs": [],
      "name": "owner",
      "outputs": [
        {
          "internalType": "address",
          "name": "",
          "type": "address"
        }
      ],
      "payable": false,
      "stateMutability": "view",
      "type": "function"
    },
    {
      "constant": true,
      "inputs": [
        {
          "internalType": "address",
          "name": "",
          "type": "address"
        }
      ],
      "name": "participants",
      "outputs": [
        {
          "internalType": "address",
          "name": "participant_id",
          "type": "address"
        },
        {
          "internalType": "bool",
          "name": "voted",
          "type": "bool"
        }
      ],
      "payable": false,
      "stateMutability": "view",
      "type": "function"
    },
    {
      "constant": false,
      "inputs": [],
      "name": "addVoteYes",
      "outputs": [
        {
          "internalType": "bool",
          "name": "completed",
          "type": "bool"
        }
      ],
      "payable": false,
      "stateMutability": "nonpayable",
      "type": "function"
    },
    {
      "constant": false,
      "inputs": [],
      "name": "addVoteNo",
      "outputs": [
        {
          "internalType": "bool",
          "name": "completed",
          "type": "bool"
        }
      ],
      "payable": false,
      "stateMutability": "nonpayable",
      "type": "function"
    },
    {
      "constant": false,
      "inputs": [],
      "name": "addVoteNone",
      "outputs": [
        {
          "internalType": "bool",
          "name": "completed",
          "type": "bool"
        }
      ],
      "payable": false,
      "stateMutability": "nonpayable",
      "type": "function"
    },
    {
      "constant": false,
      "inputs": [],
      "name": "getVoteYes",
      "outputs": [
        {
          "internalType": "uint256",
          "name": "",
          "type": "uint256"
        }
      ],
      "payable": false,
      "stateMutability": "nonpayable",
      "type": "function"
    },
    {
      "constant": false,
      "inputs": [],
      "name": "getVoteNo",
      "outputs": [
        {
          "internalType": "uint256",
          "name": "",
          "type": "uint256"
        }
      ],
      "payable": false,
      "stateMutability": "nonpayable",
      "type": "function"
    },
    {
      "constant": false,
      "inputs": [],
      "name": "getVoteNone",
      "outputs": [
        {
          "internalType": "uint256",
          "name": "",
          "type": "uint256"
        }
      ],
      "payable": false,
      "stateMutability": "nonpayable",
      "type": "function"
    }
  ],
  "bytecode": "0x608060405260006001556000600255600060035534801561001f57600080fd5b50336000806101000a81548173ffffffffffffffffffffffffffffffffffffffff021916908373ffffffffffffffffffffffffffffffffffffffff1602179055506104ad8061006f6000396000f3fe608060405234801561001057600080fd5b50600436106100885760003560e01c80635c82cef01161005b5780635c82cef01461017e5780638da5cb5b1461019c578063b05562d5146101e6578063b3327de61461020857610088565b806309e69ede1461008d5780630cf2d1f31461011c5780630ec0f8cd1461013e57806312f437021461015c575b600080fd5b6100cf600480360360208110156100a357600080fd5b81019080803573ffffffffffffffffffffffffffffffffffffffff169060200190929190505050610226565b604051808373ffffffffffffffffffffffffffffffffffffffff1673ffffffffffffffffffffffffffffffffffffffff168152602001821515151581526020019250505060405180910390f35b610124610277565b604051808215151515815260200191505060405180910390f35b61014661030c565b6040518082815260200191505060405180910390f35b610164610316565b604051808215151515815260200191505060405180910390f35b6101866103ab565b6040518082815260200191505060405180910390f35b6101a46103b5565b604051808273ffffffffffffffffffffffffffffffffffffffff1673ffffffffffffffffffffffffffffffffffffffff16815260200191505060405180910390f35b6101ee6103da565b604051808215151515815260200191505060405180910390f35b61021061046e565b6040518082815260200191505060405180910390f35b60046020528060005260406000206000915090508060000160009054906101000a900473ffffffffffffffffffffffffffffffffffffffff16908060000160149054906101000a900460ff16905082565b60008090506000600460003373ffffffffffffffffffffffffffffffffffffffff1673ffffffffffffffffffffffffffffffffffffffff16815260200190815260200160002090508060000160149054906101000a900460ff1661030857600160036000828254019250508190555060018160000160146101000a81548160ff021916908315150217905550600191505b5090565b6000600154905090565b60008090506000600460003373ffffffffffffffffffffffffffffffffffffffff1673ffffffffffffffffffffffffffffffffffffffff16815260200190815260200160002090508060000160149054906101000a900460ff166103a757600160026000828254019250508190555060018160000160146101000a81548160ff021916908315150217905550600191505b5090565b6000600354905090565b6000809054906101000a900473ffffffffffffffffffffffffffffffffffffffff1681565b60008090506000600460003373ffffffffffffffffffffffffffffffffffffffff1673ffffffffffffffffffffffffffffffffffffffff16815260200190815260200160002090508060000160149054906101000a900460ff1661046a576001806000828254019250508190555060018160000160146101000a81548160ff021916908315150217905550600191505b5090565b600060025490509056fea265627a7a72315820be2b453ae2b21477602ae8727cbc0a9975458030fe1e47b984c230e0e077d09f64736f6c63430005100032",
  "source": "// SPDX-License-Identifier: MIT\npragma solidity >=0.5.16 <0.9.0;\n\ncontract DragonVote {\n  address public owner;\n  uint private votes_yes=0;\n  uint private votes_no=0;\n  uint private votes_none=0;\n\n  struct Participant {\n    address participant_id;\n    bool voted;\n  }\n\n  modifier restricted() {\n    if (msg.sender == owner) _;\n  }\n\n  constructor() public{\n    owner = msg.sender;\n  }\n\n  mapping(address => Participant) public participants;\n\n  function addVoteYes() public returns (bool completed){\n    completed = false;\n    Participant storage participant = participants[msg.sender];\n    if(!participant.voted){\n        votes_yes+=1;\n        participant.voted = true;\n        completed = true;\n    }\n  }\n  function addVoteNo() public returns (bool completed) {\n    completed = false;\n    Participant storage participant = participants[msg.sender];\n    if(!participant.voted){\n        votes_no+=1;\n        participant.voted = true;\n        completed = true;\n    }\n  }\n  function addVoteNone() public returns (bool completed){\n    completed = false;\n    Participant storage participant = participants[msg.sender];\n    if(!participant.voted){\n        votes_none+=1;\n        participant.voted = true;\n        completed = true;\n    }\n  }\n\n  function getVoteYes() public returns (uint) {\n    return votes_yes;\n  }\n\n  function getVoteNo() public returns (uint) {\n    return votes_no;\n  }\n\n  function getVoteNone() public returns (uint) {\n    return votes_none;\n  }\n}\n",
  "sourcePath": "/home/megaten/Desktop/UNITEC/Vanguardia/Sistema_de_votos_de_vanguardia/contracts/DragonVote.sol",
  "compiler": {
    "name": "solc",
    "version": "0.5.16+commit.9c3226ce.Emscripten.clang"
  },
  "schemaVersion": "3.4.4",
  "updatedAt": "2021-12-20T16:23:08.587Z",
  "networkType": "ethereum",
  "devdoc": {
    "methods": {}
  },
  "userdoc": {
    "methods": {}
  }
}