{
  "contractName": "Vote",
  "abi": [
    {
      "inputs": [],
      "payable": false,
      "stateMutability": "nonpayable",
      "type": "constructor"
    },
    {
      "constant": true,
      "inputs": [],
      "name": "owner",
      "outputs": [
        {
          "internalType": "address",
          "name": "",
          "type": "address"
        }
      ],
      "payable": false,
      "stateMutability": "view",
      "type": "function"
    },
    {
      "constant": false,
      "inputs": [],
      "name": "addVoteYes",
      "outputs": [],
      "payable": false,
      "stateMutability": "nonpayable",
      "type": "function"
    },
    {
      "constant": false,
      "inputs": [],
      "name": "addVoteNo",
      "outputs": [],
      "payable": false,
      "stateMutability": "nonpayable",
      "type": "function"
    },
    {
      "constant": false,
      "inputs": [],
      "name": "addVoteNone",
      "outputs": [],
      "payable": false,
      "stateMutability": "nonpayable",
      "type": "function"
    }
  ],
  "bytecode": "0x608060405234801561001057600080fd5b50336000806101000a81548173ffffffffffffffffffffffffffffffffffffffff021916908373ffffffffffffffffffffffffffffffffffffffff16021790555061014f806100606000396000f3fe608060405234801561001057600080fd5b506004361061004c5760003560e01c80630cf2d1f31461005157806312f437021461005b5780638da5cb5b14610065578063b05562d5146100af575b600080fd5b6100596100b9565b005b6100636100cd565b005b61006d6100e1565b604051808273ffffffffffffffffffffffffffffffffffffffff1673ffffffffffffffffffffffffffffffffffffffff16815260200191505060405180910390f35b6100b7610106565b005b600360008154809291906001019190505550565b600260008154809291906001019190505550565b6000809054906101000a900473ffffffffffffffffffffffffffffffffffffffff1681565b60016000815480929190600101919050555056fea265627a7a723158200d48d80262dba97344fe6bb45d6b18ee59e5d72687ff087da19105d5d149254564736f6c63430005100032",
  "source": "// SPDX-License-Identifier: MIT\npragma solidity >=0.5.16 <0.9.0;\n\ncontract Vote {\n  address public owner;\n  uint private votes_yes;\n  uint private votes_no;\n  uint private votes_none;\n\n  struct Participant {\n    uint id;\n    string name;\n    string surname;\n\n  }\n\n  modifier restricted() {\n    if (msg.sender == owner) _;\n  }\n\n  constructor() public{\n    owner = msg.sender;\n  }\n\n  function addVoteYes() public {\n      votes_yes++;  \n  }\n  function addVoteNo() public {\n      votes_no++;  \n  }\n  function addVoteNone() public {\n      votes_none++;  \n  }\n}\n",
  "sourcePath": "/home/megaten/Desktop/UNITEC/Vanguardia/Sistema_de_votos_de_vanguardia/contracts/Vote.sol",
  "compiler": {
    "name": "solc",
    "version": "0.5.16+commit.9c3226ce.Emscripten.clang"
  },
  "schemaVersion": "3.4.4",
  "updatedAt": "2021-12-19T22:43:09.085Z",
  "networkType": "ethereum",
  "devdoc": {
    "methods": {}
  },
  "userdoc": {
    "methods": {}
  }
}